:0200000480007A
:10000000370100801301010BE7000100130000001D
:1000100000000000000000000000000000000000E0
:10002000232E11FE232C51FE232A61FE232871FE6C
:100030002326A1FE2324B1FE2322C1FE2320D1FECC
:10004000232EE1FC232CF1FC232A01FD232811FDA2
:100050002326C1FD2324D1FD2322E1FD2320F1FD30
:10006000130101FCEF00907A8320C10383228103F6
:1000700003234103832301030325C1028325810256
:1000800003264102832601020327C1018327810140
:100090000328410183280101032EC100832E810022
:1000A000032F4100832F010013010104730020304E
:1000B000971100009381017217110000130181EE66
:1000C00017150000130505F197150000938585F0BD
:1000D0006308B50023200500130545006FF05FFF9E
:1000E0001385418A1301C1FF9385418A630EB500D0
:1000F00083260500130545002320A100E7800600A4
:10010000032501006FF05FFE13014100EF00507006
:100110006F000000B7060170034705006314070075
:100120006780000083A7460093D7070193F7F70F76
:10013000E38A07FE23A0E600130515006FF0DFFD3C
:100FA0000A00000048656C6C6F2066726F6D2073DC
:100FB000756273797320310048656C6C6F206672BE
:100FC0006F6D20737562737973203200000000002A
:100FD000130101FF23261100EFF0CF938320C100FE
:100FE00037150080130505FA130101016FF08F9288
:100FF000B707007023A2A700678000008327450081
:10100000B3F7B700E39CC7FE678000006F000000E5
:10101000130101FF232611002324810037070070EC
:1010200083278700E38E07FE370400708327440080
:1010300093F71700E38C07FE37150080130545FA78
:10104000EFF01FF9930720002322F400370400700B
:101050008327440093F71700E38C07FE37150080C1
:10106000130585FBEFF0DFF6930740002322F40021
:041070006F0000000D
:040000058000000077
:00000001FF
