:0200000480007A
:10000000370100801301010BE7000100130000001D
:1000100000000000000000000000000000000000E0
:10002000232E11FE232C51FE232A61FE232871FE6C
:100030002326A1FE2324B1FE2322C1FE2320D1FECC
:10004000232EE1FC232CF1FC232A01FD232811FDA2
:100050002326C1FD2324D1FD2322E1FD2320F1FD30
:10006000130101FCEF10400D8320C10383228103A3
:1000700003234103832301030325C1028325810256
:1000800003264102832601020327C1018327810140
:100090000328410183280101032EC100832E810022
:1000A000032F4100832F010013010104730020304E
:1000B000971100009381817317110000130181EEE5
:1000C00017150000130585F297150000938505F2BA
:1000D0006308B50023200500130545006FF05FFF9E
:1000E000138501C41301C1FF938501C4630EB500DC
:1000F00083260500130545002320A100E7800600A4
:10010000032501006FF05FFE130141003715000069
:1001100013050588731045303725000013058580C9
:1001200073100530EF1080016F0000000000000028
:1001300000000000B70601F0034705006314070044
:100140006780000083A7460093D7070193F7F70F56
:10015000E38A07FE23A0E600130515006FF0DFFD1C
:04016000DC0F008030
:100FA00048656C6C6F2066726F6D20534F43203123
:100FB0000000000048656C6C6F2066726F6D2053F6
:100FC0004F4320320000000041000000456E746570
:100FD00072696E672053424C0A00000045726173CB
:080FE0006520646F6E650000DE
:100FE800130101FF23261100EFF04F948320C10065
:100FF80037150080130585FD130101016FF00F936C
:10100800370700F0832747009387170093F7F70007
:101018002322F70067800000370701F08327470085
:1010280093D78701E38C07FE832707002300F50089
:101038006FF01FFD130101FF23248100232291007B
:101048002326110013040500B304B500130504009A
:1010580013041400EFF05FFCE39A84FE8320C100C0
:1010680003248100832441001301010167800000EB
:10107800370701F08327470093D7070193F7F70F46
:10108800E38A07FE2320A7006780000083C70500C6
:101098002300F500678000002380A500678000001A
:1010A80083D705002310F500678000002390A50072
:1010B8006780000083A705002320F50067800000F3
:1010C80023A0A50067800000130305006700030044
:1010D8001307A000B70700F023A2E700370701F0C5
:1010E8008327470093D7070193F7F70FE38A07FE93
:1010F800930700092320F700370701F083274700EB
:1011080093D7070193F7F70FE38A07FE2320070019
:10111800B70700F01307C00023A2E70067800000AC
:1011280083274500B3F7B700E39CC7FE678000003C
:0411380067800000CC
:10113C00130101FB2324810423261104232291048F
:10114C0023202105232E3103232C4103232A510371
:10115C002328610323267103232481032322910373
:10116C002320A103232EB101370400F09307F000D4
:10117C0023220400371500802324F400130505FAFC
:10118C00EFF0DFE5930710002322F40083274400DF
:10119C0093F71700E39C07FE37150080130545FBFA
:1011AC00EFF0DFE3930750002322F400370400F044
:1011BC008327440093F71700E39C07FE3715008044
:1011CC00130585FCEFF09FE19307100037150080A5
:1011DC00371900002322F4001305C5FCEFF01FE0C3
:1011EC0093090000130B09B0930B09C19305200060
:1011FC0013058100EFF0DFE3930520001305A10038
:10120C00EFF01FE313057100EFF0DFE0835781006F
:10121C000354A1009306000193F4F70F3304340137
:10122C00034771006384D406930600026384D406DA
:10123C00A303E1006384671B6362FB06130709A128
:10124C00638AE700130709A26386E700130789A0E6
:10125C00639EE7041305A000EFF05FE113DC34009C
:10126C00930A0000930C0001130D0002930D8000F3
:10127C008347710063E0FA0613050009EFF01FDFE6
:10128C0013050000EFF09FDE6FF05FF613571700A9
:10129C006FF01FFA135727006FF09FF96386770BD7
:1012AC0063EAFB00130789C06380E70A1305400655
:1012BC006FF0DFFC37170000130707C26386E708DF
:1012CC00130709E0E394E7FE13050400EFF09FDF3A
:1012DC006FF09FFA638494036382A405639AB4014C
:1012EC00834704002306F10013F5F70FEFF01FD826
:1012FC0033048401938A1A006FF09FF7835704001C
:10130C002316F100032AC1001375FA0FEFF01FD654
:10131C0013558A001375F50F6FF05FFD032A040057
:10132C001375FA0FEFF09FD413558A001375F50F50
:10133C00EFF0DFD313550A011375F50FEFF01FD340
:10134C0013558A016FF09FFA1305C000EFF01FD2FE
:10135C0093DA3400130A0000130C0001930C000202
:10136C00130D800083477100E378FAF063848403E3
:10137C00638E9403639AA4011305C100EFF09FC917
:10138C008347C1002300F40033045401130A1A00EC
:10139C006FF05FFD930520001305C100EFF05FC9EE
:1013AC008357C1002310F4006FF01FFE930540001B
:1013BC001305C100EFF0DFC78357E10013978700D7
:1013CC008347D100B3E7E7000347C1009397870039
:1013DC00B367F7002320F4006FF01FFB9307400066
:1013EC0013054006E31CF7E81305B000EFF01FC827
:1013FC00930540001305C100EFF09FC38357E10034
:10140C008349D10093978700B3E9F900939789003A
:0C141C008349C100B3E9F9006FF01FE63E
:040000058000000077
:00000001FF
