:0200000480007A
:10000000370100801301010BE7000100130000001D
:1000100000000000000000000000000000000000E0
:10002000232E11FE232C51FE232A61FE232871FE6C
:100030002326A1FE2324B1FE2322C1FE2320D1FECC
:10004000232EE1FC232CF1FC232A01FD232811FDA2
:100050002326C1FD2324D1FD2322E1FD2320F1FD30
:10006000130101FCEF10C0098320C1038322810327
:1000700003234103832301030325C1028325810256
:1000800003264102832601020327C1018327810140
:100090000328410183280101032EC100832E810022
:1000A000032F4100832F010013010104730020304E
:1000B000971100009381017117110000130181EE67
:1000C00017150000130505F097150000938585EFBF
:1000D0006308B50023200500130545006FF05FFF9E
:1000E000138501BF1301C1FF938501BF630EB500E6
:1000F00083260500130545002320A100E7800600A4
:10010000032501006FF05FFE130141003715000069
:1001100013050588731045303725000013058580C9
:1001200073100530EF00107E6F000000000000002B
:1001300000000000B70601F0034705006314070044
:100140006780000083A7460093D7070193F7F70F56
:10015000E38A07FE23A0E600130515006FF0DFFD1C
:04016000B40F008058
:100FA00041000000456E746572696E672053424CC3
:100FB0000A000000457261736520646F6E65000071
:100FC000130101FF23261100EFF0CF968320C1000B
:100FD00037150080130505FB130101016FF08F9594
:100FE000370700F0832747009387170093F7F70030
:100FF0002322F70067800000370701F083274700AE
:1010000093D78701E38C07FE832707002300F500B1
:101010006FF01FFD130101FF2324810023229100A3
:101020002326110013040500B304B50013050400C2
:1010300013041400EFF05FFCE39A84FE8320C100E8
:101040000324810083244100130101016780000013
:10105000370701F08327470093D7070193F7F70F6E
:10106000E38A07FE2320A7006780000083C70500EE
:101070002300F500678000002380A5006780000042
:1010800083D705002310F500678000002390A5009A
:101090006780000083A705002320F500678000001B
:1010A00023A0A5006780000013030500670003006C
:1010B0001307A000B70700F023A2E700370701F0ED
:1010C0008327470093D7070193F7F70FE38A07FEBB
:1010D000930700092320F700370701F08327470013
:1010E00093D7070193F7F70FE38A07FE2320070042
:1010F000B70700F01307C00023A2E70067800000D5
:041100006780000004
:10110400130101FB23261104232481042320210538
:10111400232E310323286103232671032322910400
:10112400232C4103232A51032324810323229103E3
:101134002320A103232EB101370400F09307F0000C
:101144002324F40037150080930750002322F40071
:10115400130505FAEFF09FE693071000371500809A
:10116400371900002322F400130545FAEFF01FE5B8
:1011740093090000130B09B0930B09C193052000D8
:1011840013058100EFF0DFE8930520001305A100AB
:10119400EFF01FE813057100EFF0DFE583578100DE
:1011A4000354A1009306000193F4F70F33043401B0
:1011B400034771006384D406930600026384D40653
:1011C400A303E1006384671B6362FB06130709A1A1
:1011D400638AE700130709A26386E700130789A05F
:1011E400639EE7041305A000EFF05FE613DC340010
:1011F400930A0000930C0001130D0002930D80006C
:101204008347710063E0FA0613050009EFF01FE459
:1012140013050000EFF09FE36FF05FF6135717001C
:101224006FF01FFA135727006FF09FF96386770B4F
:1012340063EAFB00130789C06380E70A13054006CD
:101244006FF0DFFC37170000130707C26386E70857
:10125400130709E0E394E7FE13050400EFF09FE4AD
:101264006FF09FFA638494036382A405639AB401C4
:10127400834704002306F10013F5F70FEFF01FDD99
:1012840033048401938A1A006FF09FF78357040094
:101294002316F100032AC1001375FA0FEFF01FDBC8
:1012A40013558A001375F50F6FF05FFD032A0400D0
:1012B4001375FA0FEFF09FD913558A001375F50FC4
:1012C400EFF0DFD813550A011375F50FEFF01FD8AF
:1012D40013558A016FF09FFA1305C000EFF01FD772
:1012E40093DA3400130A0000130C0001930C00027B
:1012F400130D800083477100E378FAF0638484035C
:10130400638E9403639AA4011305C100EFF09FCE8A
:101314008347C1002300F40033045401130A1A0064
:101324006FF05FFD930520001305C100EFF05FCE61
:101334008357C1002310F4006FF01FFE9305400093
:101344001305C100EFF0DFCC8357E100139787004A
:101354008347D100B3E7E7000347C10093978700B1
:10136400B367F7002320F4006FF01FFB93074000DE
:1013740013054006E31CF7E81305B000EFF01FCD9A
:10138400930540001305C100EFF09FC88357E100A7
:101394008349D10093978700B3E9F90093978900B3
:0C13A4008349C100B3E9F9006FF01FE6B7
:040000058000000077
:00000001FF
